{
	"data": {
		"bytecode": {
			"linkReferences": {},
			"object": "608060405273fa90cf3eec661772dd952cb9125a6f64b9b07e286000806101000a81548173ffffffffffffffffffffffffffffffffffffffff021916908373ffffffffffffffffffffffffffffffffffffffff16021790555034801561006457600080fd5b50611886806100746000396000f3fe608060405260043610620000445760003560e01c80638d97767214620000495780639f7b4579146200008d578063b93f9b0a14620000c4578063ebfd505c1462000108575b600080fd5b3480156200005657600080fd5b506200007560048036038101906200006f91906200049b565b62000138565b60405162000084919062000584565b60405180910390f35b620000ab6004803603810190620000a59190620004cd565b62000178565b604051620000bb929190620005a1565b60405180910390f35b348015620000d157600080fd5b50620000f06004803603810190620000ea91906200049b565b6200041e565b604051620000ff919062000584565b60405180910390f35b3480156200011557600080fd5b506200012062000469565b6040516200012f919062000612565b60405180910390f35b600181815481106200014957600080fd5b906000526020600020016000915054906101000a900473ffffffffffffffffffffffffffffffffffffffff1681565b600080670de0b6b3a764000083620001919190620006f2565b92506000339050600180549050600281905550833373ffffffffffffffffffffffffffffffffffffffff1631101562000201576040517f08c379a0000000000000000000000000000000000000000000000000000000008152600401620001f890620005ce565b60405180910390fd5b83341462000246576040517f08c379a00000000000000000000000000000000000000000000000000000000081526004016200023d90620005f0565b60405180910390fd5b60006064856005620002599190620006f2565b620002659190620006ba565b905060008054906101000a900473ffffffffffffffffffffffffffffffffffffffff1673ffffffffffffffffffffffffffffffffffffffff166108fc829081150290604051600060405180830381858888f19350505050158015620002ce573d6000803e3d6000fd5b508085620002dd919062000753565b94506000600254838888604051620002f59062000476565b6200030494939291906200065c565b604051809103906000f08015801562000321573d6000803e3d6000fd5b5090508073ffffffffffffffffffffffffffffffffffffffff166108fc879081150290604051600060405180830381858888f193505050501580156200036b573d6000803e3d6000fd5b506001819080600181540180825580915050600190039060005260206000200160009091909190916101000a81548173ffffffffffffffffffffffffffffffffffffffff021916908373ffffffffffffffffffffffffffffffffffffffff1602179055507f13a1a57441af9130f8777d35eaf01a40c68ee4d6e3a24827739b139cd5b5503260025482604051620004049291906200062f565b60405180910390a180600254945094505050509250929050565b6000600182815481106200043757620004366200082a565b5b9060005260206000200160009054906101000a900473ffffffffffffffffffffffffffffffffffffffff169050919050565b6000600180549050905090565b610f8680620008cb83390190565b6000813590506200049581620008b0565b92915050565b600060208284031215620004b457620004b362000859565b5b6000620004c48482850162000484565b91505092915050565b60008060408385031215620004e757620004e662000859565b5b6000620004f78582860162000484565b92505060206200050a8582860162000484565b9150509250929050565b6200051f816200078e565b82525050565b600062000534602083620006a9565b915062000541826200085e565b602082019050919050565b60006200055b601e83620006a9565b9150620005688262000887565b602082019050919050565b6200057e81620007c2565b82525050565b60006020820190506200059b600083018462000514565b92915050565b6000604082019050620005b8600083018562000514565b620005c7602083018462000573565b9392505050565b60006020820190508181036000830152620005e98162000525565b9050919050565b600060208201905081810360008301526200060b816200054c565b9050919050565b600060208201905062000629600083018462000573565b92915050565b600060408201905062000646600083018562000573565b62000655602083018462000514565b9392505050565b600060808201905062000673600083018762000573565b62000682602083018662000514565b62000691604083018562000573565b620006a0606083018462000573565b95945050505050565b600082825260208201905092915050565b6000620006c782620007c2565b9150620006d483620007c2565b925082620006e757620006e6620007fb565b5b828204905092915050565b6000620006ff82620007c2565b91506200070c83620007c2565b9250817fffffffffffffffffffffffffffffffffffffffffffffffffffffffffffffffff0483118215151615620007485762000747620007cc565b5b828202905092915050565b60006200076082620007c2565b91506200076d83620007c2565b925082821015620007835762000782620007cc565b5b828203905092915050565b60006200079b82620007a2565b9050919050565b600073ffffffffffffffffffffffffffffffffffffffff82169050919050565b6000819050919050565b7f4e487b7100000000000000000000000000000000000000000000000000000000600052601160045260246000fd5b7f4e487b7100000000000000000000000000000000000000000000000000000000600052601260045260246000fd5b7f4e487b7100000000000000000000000000000000000000000000000000000000600052603260045260246000fd5b600080fd5b7f5461736b466163746f72793a20696e73756666696369656e742066756e64732e600082015250565b7f5461736b466163746f72793a20556e6d61746368696e672066756e64732e0000600082015250565b620008bb81620007c2565b8114620008c757600080fd5b5056fe608060405273d0d5e3db44de05e9f294bb0a3beeaf030de24ada6000806101000a81548173ffffffffffffffffffffffffffffffffffffffff021916908373ffffffffffffffffffffffffffffffffffffffff16021790555073fa90cf3eec661772dd952cb9125a6f64b9b07e28600260006101000a81548173ffffffffffffffffffffffffffffffffffffffff021916908373ffffffffffffffffffffffffffffffffffffffff16021790555060405162000f8638038062000f868339818101604052810190620000d291906200019b565b82600160006101000a81548173ffffffffffffffffffffffffffffffffffffffff021916908373ffffffffffffffffffffffffffffffffffffffff160217905550836005819055506001600660006101000a81548160ff02191690831515021790555081600381905550806007819055506003546007546200015591906200020d565b600881905550600060048190555050505050620002eb565b6000815190506200017e81620002b7565b92915050565b6000815190506200019581620002d1565b92915050565b60008060008060808587031215620001b857620001b7620002b2565b5b6000620001c88782880162000184565b9450506020620001db878288016200016d565b9350506040620001ee8782880162000184565b9250506060620002018782880162000184565b91505092959194509250565b60006200021a8262000279565b9150620002278362000279565b9250826200023a576200023962000283565b5b828204905092915050565b6000620002528262000259565b9050919050565b600073ffffffffffffffffffffffffffffffffffffffff82169050919050565b6000819050919050565b7f4e487b7100000000000000000000000000000000000000000000000000000000600052601260045260246000fd5b600080fd5b620002c28162000245565b8114620002ce57600080fd5b50565b620002dc8162000279565b8114620002e857600080fd5b50565b610c8b80620002fb6000396000f3fe6080604052600436106100c65760003560e01c806396852fcd1161007f578063ce673fcf11610059578063ce673fcf14610250578063d1ff21c21461027b578063db8d55f114610297578063f3edb0ce146102c2576100cd565b806396852fcd146101d1578063c45278a9146101fa578063cd3e699314610225576100cd565b80630b42330c146100cf5780630d72319a146100fa57806312065fe01461012557806365ac4341146101505780636c8298531461017b5780638e15f473146101a6576100cd565b366100cd57005b005b3480156100db57600080fd5b506100e46102ed565b6040516100f191906108ca565b60405180910390f35b34801561010657600080fd5b5061010f610304565b60405161011c9190610960565b60405180910390f35b34801561013157600080fd5b5061013a61030e565b6040516101479190610960565b60405180910390f35b34801561015c57600080fd5b5061016561032d565b6040516101729190610960565b60405180910390f35b34801561018757600080fd5b50610190610337565b60405161019d9190610960565b60405180910390f35b3480156101b257600080fd5b506101bb610341565b6040516101c891906108e5565b60405180910390f35b3480156101dd57600080fd5b506101f860048036038101906101f39190610735565b6103fd565b005b34801561020657600080fd5b5061020f61049c565b60405161021c9190610960565b60405180910390f35b34801561023157600080fd5b5061023a6104a6565b60405161024791906108af565b60405180910390f35b34801561025c57600080fd5b506102656104cc565b6040516102729190610960565b60405180910390f35b61029560048036038101906102909190610762565b6104d4565b005b3480156102a357600080fd5b506102ac610592565b6040516102b99190610960565b60405180910390f35b3480156102ce57600080fd5b506102d761059c565b6040516102e49190610960565b60405180910390f35b6000600660009054906101000a900460ff16905090565b6000600854905090565b60003373ffffffffffffffffffffffffffffffffffffffff1631905090565b6000600754905090565b6000600354905090565b60008060008060008060008054906101000a900473ffffffffffffffffffffffffffffffffffffffff1673ffffffffffffffffffffffffffffffffffffffff1663feaf968c6040518163ffffffff1660e01b815260040160a06040518083038186803b1580156103b057600080fd5b505afa1580156103c4573d6000803e3d6000fd5b505050506040513d601f19601f820116820180604052508101906103e8919061078f565b94509450945094509450839550505050505090565b60011515600660009054906101000a900460ff16151514610453576040517f08c379a000000000000000000000000000000000000000000000000000000000815260040161044a90610900565b60405180910390fd5b61045c816105a6565b600160045461046b919061098c565b6004819055506003546004541415610499576000600660006101000a81548160ff0219169083151502179055505b50565b6000600554905090565b600160009054906101000a900473ffffffffffffffffffffffffffffffffffffffff1681565b600047905090565b670de0b6b3a7640000816104e89190610a13565b9050803373ffffffffffffffffffffffffffffffffffffffff16311015610544576040517f08c379a000000000000000000000000000000000000000000000000000000000815260040161053b90610920565b60405180910390fd5b803414610586576040517f08c379a000000000000000000000000000000000000000000000000000000000815260040161057d90610940565b60405180910390fd5b61058f81610608565b50565b6000600954905090565b6000600454905090565b8073ffffffffffffffffffffffffffffffffffffffff166108fc6008549081150290604051600060405180830381858888f193505050501580156105ee573d6000803e3d6000fd5b506008546007546105ff9190610a6d565b60078190555050565b60648160056106179190610a13565b61062191906109e2565b600981905550600260009054906101000a900473ffffffffffffffffffffffffffffffffffffffff1673ffffffffffffffffffffffffffffffffffffffff166108fc6009549081150290604051600060405180830381858888f19350505050158015610691573d6000803e3d6000fd5b50600954816106a09190610a6d565b6007546106ad919061098c565b6007819055506003546007546106c391906109e2565b60088190555050565b6000813590506106db81610bf9565b92915050565b6000815190506106f081610c10565b92915050565b60008135905061070581610c27565b92915050565b60008151905061071a81610c27565b92915050565b60008151905061072f81610c3e565b92915050565b60006020828403121561074b5761074a610b79565b5b6000610759848285016106cc565b91505092915050565b60006020828403121561077857610777610b79565b5b6000610786848285016106f6565b91505092915050565b600080600080600060a086880312156107ab576107aa610b79565b5b60006107b988828901610720565b95505060206107ca888289016106e1565b94505060406107db8882890161070b565b93505060606107ec8882890161070b565b92505060806107fd88828901610720565b9150509295509295909350565b61081381610aa1565b82525050565b61082281610ac5565b82525050565b61083181610ad1565b82525050565b600061084460158361097b565b915061084f82610b7e565b602082019050919050565b600061086760198361097b565b915061087282610ba7565b602082019050919050565b600061088a60178361097b565b915061089582610bd0565b602082019050919050565b6108a981610afb565b82525050565b60006020820190506108c4600083018461080a565b92915050565b60006020820190506108df6000830184610819565b92915050565b60006020820190506108fa6000830184610828565b92915050565b6000602082019050818103600083015261091981610837565b9050919050565b600060208201905081810360008301526109398161085a565b9050919050565b600060208201905081810360008301526109598161087d565b9050919050565b600060208201905061097560008301846108a0565b92915050565b600082825260208201905092915050565b600061099782610afb565b91506109a283610afb565b9250827fffffffffffffffffffffffffffffffffffffffffffffffffffffffffffffffff038211156109d7576109d6610b1b565b5b828201905092915050565b60006109ed82610afb565b91506109f883610afb565b925082610a0857610a07610b4a565b5b828204905092915050565b6000610a1e82610afb565b9150610a2983610afb565b9250817fffffffffffffffffffffffffffffffffffffffffffffffffffffffffffffffff0483118215151615610a6257610a61610b1b565b5b828202905092915050565b6000610a7882610afb565b9150610a8383610afb565b925082821015610a9657610a95610b1b565b5b828203905092915050565b6000610aac82610adb565b9050919050565b6000610abe82610adb565b9050919050565b60008115159050919050565b6000819050919050565b600073ffffffffffffffffffffffffffffffffffffffff82169050919050565b6000819050919050565b600069ffffffffffffffffffff82169050919050565b7f4e487b7100000000000000000000000000000000000000000000000000000000600052601160045260246000fd5b7f4e487b7100000000000000000000000000000000000000000000000000000000600052601260045260246000fd5b600080fd5b7f5461736b3a205461736b20697320636c6f7365642e0000000000000000000000600082015250565b7f5461736b3a20696e73756666696369656e742066756e64732e00000000000000600082015250565b7f5461736b3a20556e6d61746368696e672066756e64732e000000000000000000600082015250565b610c0281610ab3565b8114610c0d57600080fd5b50565b610c1981610ad1565b8114610c2457600080fd5b50565b610c3081610afb565b8114610c3b57600080fd5b50565b610c4781610b05565b8114610c5257600080fd5b5056fea264697066735822122014d8cee03b290bf687f0d3f565a2d458d6e566fe7da93a4b9a0eb816aa6370b364736f6c63430008070033a264697066735822122059d9268f45264ee07a5fb10ee192d9f83db898e6971945e320f38dc00e361e3864736f6c63430008070033",
			"opcodes": "PUSH1 0x80 PUSH1 0x40 MSTORE PUSH20 0xFA90CF3EEC661772DD952CB9125A6F64B9B07E28 PUSH1 0x0 DUP1 PUSH2 0x100 EXP DUP2 SLOAD DUP2 PUSH20 0xFFFFFFFFFFFFFFFFFFFFFFFFFFFFFFFFFFFFFFFF MUL NOT AND SWAP1 DUP4 PUSH20 0xFFFFFFFFFFFFFFFFFFFFFFFFFFFFFFFFFFFFFFFF AND MUL OR SWAP1 SSTORE POP CALLVALUE DUP1 ISZERO PUSH2 0x64 JUMPI PUSH1 0x0 DUP1 REVERT JUMPDEST POP PUSH2 0x1886 DUP1 PUSH2 0x74 PUSH1 0x0 CODECOPY PUSH1 0x0 RETURN INVALID PUSH1 0x80 PUSH1 0x40 MSTORE PUSH1 0x4 CALLDATASIZE LT PUSH3 0x44 JUMPI PUSH1 0x0 CALLDATALOAD PUSH1 0xE0 SHR DUP1 PUSH4 0x8D977672 EQ PUSH3 0x49 JUMPI DUP1 PUSH4 0x9F7B4579 EQ PUSH3 0x8D JUMPI DUP1 PUSH4 0xB93F9B0A EQ PUSH3 0xC4 JUMPI DUP1 PUSH4 0xEBFD505C EQ PUSH3 0x108 JUMPI JUMPDEST PUSH1 0x0 DUP1 REVERT JUMPDEST CALLVALUE DUP1 ISZERO PUSH3 0x56 JUMPI PUSH1 0x0 DUP1 REVERT JUMPDEST POP PUSH3 0x75 PUSH1 0x4 DUP1 CALLDATASIZE SUB DUP2 ADD SWAP1 PUSH3 0x6F SWAP2 SWAP1 PUSH3 0x49B JUMP JUMPDEST PUSH3 0x138 JUMP JUMPDEST PUSH1 0x40 MLOAD PUSH3 0x84 SWAP2 SWAP1 PUSH3 0x584 JUMP JUMPDEST PUSH1 0x40 MLOAD DUP1 SWAP2 SUB SWAP1 RETURN JUMPDEST PUSH3 0xAB PUSH1 0x4 DUP1 CALLDATASIZE SUB DUP2 ADD SWAP1 PUSH3 0xA5 SWAP2 SWAP1 PUSH3 0x4CD JUMP JUMPDEST PUSH3 0x178 JUMP JUMPDEST PUSH1 0x40 MLOAD PUSH3 0xBB SWAP3 SWAP2 SWAP1 PUSH3 0x5A1 JUMP JUMPDEST PUSH1 0x40 MLOAD DUP1 SWAP2 SUB SWAP1 RETURN JUMPDEST CALLVALUE DUP1 ISZERO PUSH3 0xD1 JUMPI PUSH1 0x0 DUP1 REVERT JUMPDEST POP PUSH3 0xF0 PUSH1 0x4 DUP1 CALLDATASIZE SUB DUP2 ADD SWAP1 PUSH3 0xEA SWAP2 SWAP1 PUSH3 0x49B JUMP JUMPDEST PUSH3 0x41E JUMP JUMPDEST PUSH1 0x40 MLOAD PUSH3 0xFF SWAP2 SWAP1 PUSH3 0x584 JUMP JUMPDEST PUSH1 0x40 MLOAD DUP1 SWAP2 SUB SWAP1 RETURN JUMPDEST CALLVALUE DUP1 ISZERO PUSH3 0x115 JUMPI PUSH1 0x0 DUP1 REVERT JUMPDEST POP PUSH3 0x120 PUSH3 0x469 JUMP JUMPDEST PUSH1 0x40 MLOAD PUSH3 0x12F SWAP2 SWAP1 PUSH3 0x612 JUMP JUMPDEST PUSH1 0x40 MLOAD DUP1 SWAP2 SUB SWAP1 RETURN JUMPDEST PUSH1 0x1 DUP2 DUP2 SLOAD DUP2 LT PUSH3 0x149 JUMPI PUSH1 0x0 DUP1 REVERT JUMPDEST SWAP1 PUSH1 0x0 MSTORE PUSH1 0x20 PUSH1 0x0 KECCAK256 ADD PUSH1 0x0 SWAP2 POP SLOAD SWAP1 PUSH2 0x100 EXP SWAP1 DIV PUSH20 0xFFFFFFFFFFFFFFFFFFFFFFFFFFFFFFFFFFFFFFFF AND DUP2 JUMP JUMPDEST PUSH1 0x0 DUP1 PUSH8 0xDE0B6B3A7640000 DUP4 PUSH3 0x191 SWAP2 SWAP1 PUSH3 0x6F2 JUMP JUMPDEST SWAP3 POP PUSH1 0x0 CALLER SWAP1 POP PUSH1 0x1 DUP1 SLOAD SWAP1 POP PUSH1 0x2 DUP2 SWAP1 SSTORE POP DUP4 CALLER PUSH20 0xFFFFFFFFFFFFFFFFFFFFFFFFFFFFFFFFFFFFFFFF AND BALANCE LT ISZERO PUSH3 0x201 JUMPI PUSH1 0x40 MLOAD PUSH32 0x8C379A000000000000000000000000000000000000000000000000000000000 DUP2 MSTORE PUSH1 0x4 ADD PUSH3 0x1F8 SWAP1 PUSH3 0x5CE JUMP JUMPDEST PUSH1 0x40 MLOAD DUP1 SWAP2 SUB SWAP1 REVERT JUMPDEST DUP4 CALLVALUE EQ PUSH3 0x246 JUMPI PUSH1 0x40 MLOAD PUSH32 0x8C379A000000000000000000000000000000000000000000000000000000000 DUP2 MSTORE PUSH1 0x4 ADD PUSH3 0x23D SWAP1 PUSH3 0x5F0 JUMP JUMPDEST PUSH1 0x40 MLOAD DUP1 SWAP2 SUB SWAP1 REVERT JUMPDEST PUSH1 0x0 PUSH1 0x64 DUP6 PUSH1 0x5 PUSH3 0x259 SWAP2 SWAP1 PUSH3 0x6F2 JUMP JUMPDEST PUSH3 0x265 SWAP2 SWAP1 PUSH3 0x6BA JUMP JUMPDEST SWAP1 POP PUSH1 0x0 DUP1 SLOAD SWAP1 PUSH2 0x100 EXP SWAP1 DIV PUSH20 0xFFFFFFFFFFFFFFFFFFFFFFFFFFFFFFFFFFFFFFFF AND PUSH20 0xFFFFFFFFFFFFFFFFFFFFFFFFFFFFFFFFFFFFFFFF AND PUSH2 0x8FC DUP3 SWAP1 DUP2 ISZERO MUL SWAP1 PUSH1 0x40 MLOAD PUSH1 0x0 PUSH1 0x40 MLOAD DUP1 DUP4 SUB DUP2 DUP6 DUP9 DUP9 CALL SWAP4 POP POP POP POP ISZERO DUP1 ISZERO PUSH3 0x2CE JUMPI RETURNDATASIZE PUSH1 0x0 DUP1 RETURNDATACOPY RETURNDATASIZE PUSH1 0x0 REVERT JUMPDEST POP DUP1 DUP6 PUSH3 0x2DD SWAP2 SWAP1 PUSH3 0x753 JUMP JUMPDEST SWAP5 POP PUSH1 0x0 PUSH1 0x2 SLOAD DUP4 DUP9 DUP9 PUSH1 0x40 MLOAD PUSH3 0x2F5 SWAP1 PUSH3 0x476 JUMP JUMPDEST PUSH3 0x304 SWAP5 SWAP4 SWAP3 SWAP2 SWAP1 PUSH3 0x65C JUMP JUMPDEST PUSH1 0x40 MLOAD DUP1 SWAP2 SUB SWAP1 PUSH1 0x0 CREATE DUP1 ISZERO DUP1 ISZERO PUSH3 0x321 JUMPI RETURNDATASIZE PUSH1 0x0 DUP1 RETURNDATACOPY RETURNDATASIZE PUSH1 0x0 REVERT JUMPDEST POP SWAP1 POP DUP1 PUSH20 0xFFFFFFFFFFFFFFFFFFFFFFFFFFFFFFFFFFFFFFFF AND PUSH2 0x8FC DUP8 SWAP1 DUP2 ISZERO MUL SWAP1 PUSH1 0x40 MLOAD PUSH1 0x0 PUSH1 0x40 MLOAD DUP1 DUP4 SUB DUP2 DUP6 DUP9 DUP9 CALL SWAP4 POP POP POP POP ISZERO DUP1 ISZERO PUSH3 0x36B JUMPI RETURNDATASIZE PUSH1 0x0 DUP1 RETURNDATACOPY RETURNDATASIZE PUSH1 0x0 REVERT JUMPDEST POP PUSH1 0x1 DUP2 SWAP1 DUP1 PUSH1 0x1 DUP2 SLOAD ADD DUP1 DUP3 SSTORE DUP1 SWAP2 POP POP PUSH1 0x1 SWAP1 SUB SWAP1 PUSH1 0x0 MSTORE PUSH1 0x20 PUSH1 0x0 KECCAK256 ADD PUSH1 0x0 SWAP1 SWAP2 SWAP1 SWAP2 SWAP1 SWAP2 PUSH2 0x100 EXP DUP2 SLOAD DUP2 PUSH20 0xFFFFFFFFFFFFFFFFFFFFFFFFFFFFFFFFFFFFFFFF MUL NOT AND SWAP1 DUP4 PUSH20 0xFFFFFFFFFFFFFFFFFFFFFFFFFFFFFFFFFFFFFFFF AND MUL OR SWAP1 SSTORE POP PUSH32 0x13A1A57441AF9130F8777D35EAF01A40C68EE4D6E3A24827739B139CD5B55032 PUSH1 0x2 SLOAD DUP3 PUSH1 0x40 MLOAD PUSH3 0x404 SWAP3 SWAP2 SWAP1 PUSH3 0x62F JUMP JUMPDEST PUSH1 0x40 MLOAD DUP1 SWAP2 SUB SWAP1 LOG1 DUP1 PUSH1 0x2 SLOAD SWAP5 POP SWAP5 POP POP POP POP SWAP3 POP SWAP3 SWAP1 POP JUMP JUMPDEST PUSH1 0x0 PUSH1 0x1 DUP3 DUP2 SLOAD DUP2 LT PUSH3 0x437 JUMPI PUSH3 0x436 PUSH3 0x82A JUMP JUMPDEST JUMPDEST SWAP1 PUSH1 0x0 MSTORE PUSH1 0x20 PUSH1 0x0 KECCAK256 ADD PUSH1 0x0 SWAP1 SLOAD SWAP1 PUSH2 0x100 EXP SWAP1 DIV PUSH20 0xFFFFFFFFFFFFFFFFFFFFFFFFFFFFFFFFFFFFFFFF AND SWAP1 POP SWAP2 SWAP1 POP JUMP JUMPDEST PUSH1 0x0 PUSH1 0x1 DUP1 SLOAD SWAP1 POP SWAP1 POP SWAP1 JUMP JUMPDEST PUSH2 0xF86 DUP1 PUSH3 0x8CB DUP4 CODECOPY ADD SWAP1 JUMP JUMPDEST PUSH1 0x0 DUP2 CALLDATALOAD SWAP1 POP PUSH3 0x495 DUP2 PUSH3 0x8B0 JUMP JUMPDEST SWAP3 SWAP2 POP POP JUMP JUMPDEST PUSH1 0x0 PUSH1 0x20 DUP3 DUP5 SUB SLT ISZERO PUSH3 0x4B4 JUMPI PUSH3 0x4B3 PUSH3 0x859 JUMP JUMPDEST JUMPDEST PUSH1 0x0 PUSH3 0x4C4 DUP5 DUP3 DUP6 ADD PUSH3 0x484 JUMP JUMPDEST SWAP2 POP POP SWAP3 SWAP2 POP POP JUMP JUMPDEST PUSH1 0x0 DUP1 PUSH1 0x40 DUP4 DUP6 SUB SLT ISZERO PUSH3 0x4E7 JUMPI PUSH3 0x4E6 PUSH3 0x859 JUMP JUMPDEST JUMPDEST PUSH1 0x0 PUSH3 0x4F7 DUP6 DUP3 DUP7 ADD PUSH3 0x484 JUMP JUMPDEST SWAP3 POP POP PUSH1 0x20 PUSH3 0x50A DUP6 DUP3 DUP7 ADD PUSH3 0x484 JUMP JUMPDEST SWAP2 POP POP SWAP3 POP SWAP3 SWAP1 POP JUMP JUMPDEST PUSH3 0x51F DUP2 PUSH3 0x78E JUMP JUMPDEST DUP3 MSTORE POP POP JUMP JUMPDEST PUSH1 0x0 PUSH3 0x534 PUSH1 0x20 DUP4 PUSH3 0x6A9 JUMP JUMPDEST SWAP2 POP PUSH3 0x541 DUP3 PUSH3 0x85E JUMP JUMPDEST PUSH1 0x20 DUP3 ADD SWAP1 POP SWAP2 SWAP1 POP JUMP JUMPDEST PUSH1 0x0 PUSH3 0x55B PUSH1 0x1E DUP4 PUSH3 0x6A9 JUMP JUMPDEST SWAP2 POP PUSH3 0x568 DUP3 PUSH3 0x887 JUMP JUMPDEST PUSH1 0x20 DUP3 ADD SWAP1 POP SWAP2 SWAP1 POP JUMP JUMPDEST PUSH3 0x57E DUP2 PUSH3 0x7C2 JUMP JUMPDEST DUP3 MSTORE POP POP JUMP JUMPDEST PUSH1 0x0 PUSH1 0x20 DUP3 ADD SWAP1 POP PUSH3 0x59B PUSH1 0x0 DUP4 ADD DUP5 PUSH3 0x514 JUMP JUMPDEST SWAP3 SWAP2 POP POP JUMP JUMPDEST PUSH1 0x0 PUSH1 0x40 DUP3 ADD SWAP1 POP PUSH3 0x5B8 PUSH1 0x0 DUP4 ADD DUP6 PUSH3 0x514 JUMP JUMPDEST PUSH3 0x5C7 PUSH1 0x20 DUP4 ADD DUP5 PUSH3 0x573 JUMP JUMPDEST SWAP4 SWAP3 POP POP POP JUMP JUMPDEST PUSH1 0x0 PUSH1 0x20 DUP3 ADD SWAP1 POP DUP2 DUP2 SUB PUSH1 0x0 DUP4 ADD MSTORE PUSH3 0x5E9 DUP2 PUSH3 0x525 JUMP JUMPDEST SWAP1 POP SWAP2 SWAP1 POP JUMP JUMPDEST PUSH1 0x0 PUSH1 0x20 DUP3 ADD SWAP1 POP DUP2 DUP2 SUB PUSH1 0x0 DUP4 ADD MSTORE PUSH3 0x60B DUP2 PUSH3 0x54C JUMP JUMPDEST SWAP1 POP SWAP2 SWAP1 POP JUMP JUMPDEST PUSH1 0x0 PUSH1 0x20 DUP3 ADD SWAP1 POP PUSH3 0x629 PUSH1 0x0 DUP4 ADD DUP5 PUSH3 0x573 JUMP JUMPDEST SWAP3 SWAP2 POP POP JUMP JUMPDEST PUSH1 0x0 PUSH1 0x40 DUP3 ADD SWAP1 POP PUSH3 0x646 PUSH1 0x0 DUP4 ADD DUP6 PUSH3 0x573 JUMP JUMPDEST PUSH3 0x655 PUSH1 0x20 DUP4 ADD DUP5 PUSH3 0x514 JUMP JUMPDEST SWAP4 SWAP3 POP POP POP JUMP JUMPDEST PUSH1 0x0 PUSH1 0x80 DUP3 ADD SWAP1 POP PUSH3 0x673 PUSH1 0x0 DUP4 ADD DUP8 PUSH3 0x573 JUMP JUMPDEST PUSH3 0x682 PUSH1 0x20 DUP4 ADD DUP7 PUSH3 0x514 JUMP JUMPDEST PUSH3 0x691 PUSH1 0x40 DUP4 ADD DUP6 PUSH3 0x573 JUMP JUMPDEST PUSH3 0x6A0 PUSH1 0x60 DUP4 ADD DUP5 PUSH3 0x573 JUMP JUMPDEST SWAP6 SWAP5 POP POP POP POP POP JUMP JUMPDEST PUSH1 0x0 DUP3 DUP3 MSTORE PUSH1 0x20 DUP3 ADD SWAP1 POP SWAP3 SWAP2 POP POP JUMP JUMPDEST PUSH1 0x0 PUSH3 0x6C7 DUP3 PUSH3 0x7C2 JUMP JUMPDEST SWAP2 POP PUSH3 0x6D4 DUP4 PUSH3 0x7C2 JUMP JUMPDEST SWAP3 POP DUP3 PUSH3 0x6E7 JUMPI PUSH3 0x6E6 PUSH3 0x7FB JUMP JUMPDEST JUMPDEST DUP3 DUP3 DIV SWAP1 POP SWAP3 SWAP2 POP POP JUMP JUMPDEST PUSH1 0x0 PUSH3 0x6FF DUP3 PUSH3 0x7C2 JUMP JUMPDEST SWAP2 POP PUSH3 0x70C DUP4 PUSH3 0x7C2 JUMP JUMPDEST SWAP3 POP DUP2 PUSH32 0xFFFFFFFFFFFFFFFFFFFFFFFFFFFFFFFFFFFFFFFFFFFFFFFFFFFFFFFFFFFFFFFF DIV DUP4 GT DUP3 ISZERO ISZERO AND ISZERO PUSH3 0x748 JUMPI PUSH3 0x747 PUSH3 0x7CC JUMP JUMPDEST JUMPDEST DUP3 DUP3 MUL SWAP1 POP SWAP3 SWAP2 POP POP JUMP JUMPDEST PUSH1 0x0 PUSH3 0x760 DUP3 PUSH3 0x7C2 JUMP JUMPDEST SWAP2 POP PUSH3 0x76D DUP4 PUSH3 0x7C2 JUMP JUMPDEST SWAP3 POP DUP3 DUP3 LT ISZERO PUSH3 0x783 JUMPI PUSH3 0x782 PUSH3 0x7CC JUMP JUMPDEST JUMPDEST DUP3 DUP3 SUB SWAP1 POP SWAP3 SWAP2 POP POP JUMP JUMPDEST PUSH1 0x0 PUSH3 0x79B DUP3 PUSH3 0x7A2 JUMP JUMPDEST SWAP1 POP SWAP2 SWAP1 POP JUMP JUMPDEST PUSH1 0x0 PUSH20 0xFFFFFFFFFFFFFFFFFFFFFFFFFFFFFFFFFFFFFFFF DUP3 AND SWAP1 POP SWAP2 SWAP1 POP JUMP JUMPDEST PUSH1 0x0 DUP2 SWAP1 POP SWAP2 SWAP1 POP JUMP JUMPDEST PUSH32 0x4E487B7100000000000000000000000000000000000000000000000000000000 PUSH1 0x0 MSTORE PUSH1 0x11 PUSH1 0x4 MSTORE PUSH1 0x24 PUSH1 0x0 REVERT JUMPDEST PUSH32 0x4E487B7100000000000000000000000000000000000000000000000000000000 PUSH1 0x0 MSTORE PUSH1 0x12 PUSH1 0x4 MSTORE PUSH1 0x24 PUSH1 0x0 REVERT JUMPDEST PUSH32 0x4E487B7100000000000000000000000000000000000000000000000000000000 PUSH1 0x0 MSTORE PUSH1 0x32 PUSH1 0x4 MSTORE PUSH1 0x24 PUSH1 0x0 REVERT JUMPDEST PUSH1 0x0 DUP1 REVERT JUMPDEST PUSH32 0x5461736B466163746F72793A20696E73756666696369656E742066756E64732E PUSH1 0x0 DUP3 ADD MSTORE POP JUMP JUMPDEST PUSH32 0x5461736B466163746F72793A20556E6D61746368696E672066756E64732E0000 PUSH1 0x0 DUP3 ADD MSTORE POP JUMP JUMPDEST PUSH3 0x8BB DUP2 PUSH3 0x7C2 JUMP JUMPDEST DUP2 EQ PUSH3 0x8C7 JUMPI PUSH1 0x0 DUP1 REVERT JUMPDEST POP JUMP INVALID PUSH1 0x80 PUSH1 0x40 MSTORE PUSH20 0xD0D5E3DB44DE05E9F294BB0A3BEEAF030DE24ADA PUSH1 0x0 DUP1 PUSH2 0x100 EXP DUP2 SLOAD DUP2 PUSH20 0xFFFFFFFFFFFFFFFFFFFFFFFFFFFFFFFFFFFFFFFF MUL NOT AND SWAP1 DUP4 PUSH20 0xFFFFFFFFFFFFFFFFFFFFFFFFFFFFFFFFFFFFFFFF AND MUL OR SWAP1 SSTORE POP PUSH20 0xFA90CF3EEC661772DD952CB9125A6F64B9B07E28 PUSH1 0x2 PUSH1 0x0 PUSH2 0x100 EXP DUP2 SLOAD DUP2 PUSH20 0xFFFFFFFFFFFFFFFFFFFFFFFFFFFFFFFFFFFFFFFF MUL NOT AND SWAP1 DUP4 PUSH20 0xFFFFFFFFFFFFFFFFFFFFFFFFFFFFFFFFFFFFFFFF AND MUL OR SWAP1 SSTORE POP PUSH1 0x40 MLOAD PUSH3 0xF86 CODESIZE SUB DUP1 PUSH3 0xF86 DUP4 CODECOPY DUP2 DUP2 ADD PUSH1 0x40 MSTORE DUP2 ADD SWAP1 PUSH3 0xD2 SWAP2 SWAP1 PUSH3 0x19B JUMP JUMPDEST DUP3 PUSH1 0x1 PUSH1 0x0 PUSH2 0x100 EXP DUP2 SLOAD DUP2 PUSH20 0xFFFFFFFFFFFFFFFFFFFFFFFFFFFFFFFFFFFFFFFF MUL NOT AND SWAP1 DUP4 PUSH20 0xFFFFFFFFFFFFFFFFFFFFFFFFFFFFFFFFFFFFFFFF AND MUL OR SWAP1 SSTORE POP DUP4 PUSH1 0x5 DUP2 SWAP1 SSTORE POP PUSH1 0x1 PUSH1 0x6 PUSH1 0x0 PUSH2 0x100 EXP DUP2 SLOAD DUP2 PUSH1 0xFF MUL NOT AND SWAP1 DUP4 ISZERO ISZERO MUL OR SWAP1 SSTORE POP DUP2 PUSH1 0x3 DUP2 SWAP1 SSTORE POP DUP1 PUSH1 0x7 DUP2 SWAP1 SSTORE POP PUSH1 0x3 SLOAD PUSH1 0x7 SLOAD PUSH3 0x155 SWAP2 SWAP1 PUSH3 0x20D JUMP JUMPDEST PUSH1 0x8 DUP2 SWAP1 SSTORE POP PUSH1 0x0 PUSH1 0x4 DUP2 SWAP1 SSTORE POP POP POP POP POP PUSH3 0x2EB JUMP JUMPDEST PUSH1 0x0 DUP2 MLOAD SWAP1 POP PUSH3 0x17E DUP2 PUSH3 0x2B7 JUMP JUMPDEST SWAP3 SWAP2 POP POP JUMP JUMPDEST PUSH1 0x0 DUP2 MLOAD SWAP1 POP PUSH3 0x195 DUP2 PUSH3 0x2D1 JUMP JUMPDEST SWAP3 SWAP2 POP POP JUMP JUMPDEST PUSH1 0x0 DUP1 PUSH1 0x0 DUP1 PUSH1 0x80 DUP6 DUP8 SUB SLT ISZERO PUSH3 0x1B8 JUMPI PUSH3 0x1B7 PUSH3 0x2B2 JUMP JUMPDEST JUMPDEST PUSH1 0x0 PUSH3 0x1C8 DUP8 DUP3 DUP9 ADD PUSH3 0x184 JUMP JUMPDEST SWAP5 POP POP PUSH1 0x20 PUSH3 0x1DB DUP8 DUP3 DUP9 ADD PUSH3 0x16D JUMP JUMPDEST SWAP4 POP POP PUSH1 0x40 PUSH3 0x1EE DUP8 DUP3 DUP9 ADD PUSH3 0x184 JUMP JUMPDEST SWAP3 POP POP PUSH1 0x60 PUSH3 0x201 DUP8 DUP3 DUP9 ADD PUSH3 0x184 JUMP JUMPDEST SWAP2 POP POP SWAP3 SWAP6 SWAP2 SWAP5 POP SWAP3 POP JUMP JUMPDEST PUSH1 0x0 PUSH3 0x21A DUP3 PUSH3 0x279 JUMP JUMPDEST SWAP2 POP PUSH3 0x227 DUP4 PUSH3 0x279 JUMP JUMPDEST SWAP3 POP DUP3 PUSH3 0x23A JUMPI PUSH3 0x239 PUSH3 0x283 JUMP JUMPDEST JUMPDEST DUP3 DUP3 DIV SWAP1 POP SWAP3 SWAP2 POP POP JUMP JUMPDEST PUSH1 0x0 PUSH3 0x252 DUP3 PUSH3 0x259 JUMP JUMPDEST SWAP1 POP SWAP2 SWAP1 POP JUMP JUMPDEST PUSH1 0x0 PUSH20 0xFFFFFFFFFFFFFFFFFFFFFFFFFFFFFFFFFFFFFFFF DUP3 AND SWAP1 POP SWAP2 SWAP1 POP JUMP JUMPDEST PUSH1 0x0 DUP2 SWAP1 POP SWAP2 SWAP1 POP JUMP JUMPDEST PUSH32 0x4E487B7100000000000000000000000000000000000000000000000000000000 PUSH1 0x0 MSTORE PUSH1 0x12 PUSH1 0x4 MSTORE PUSH1 0x24 PUSH1 0x0 REVERT JUMPDEST PUSH1 0x0 DUP1 REVERT JUMPDEST PUSH3 0x2C2 DUP2 PUSH3 0x245 JUMP JUMPDEST DUP2 EQ PUSH3 0x2CE JUMPI PUSH1 0x0 DUP1 REVERT JUMPDEST POP JUMP JUMPDEST PUSH3 0x2DC DUP2 PUSH3 0x279 JUMP JUMPDEST DUP2 EQ PUSH3 0x2E8 JUMPI PUSH1 0x0 DUP1 REVERT JUMPDEST POP JUMP JUMPDEST PUSH2 0xC8B DUP1 PUSH3 0x2FB PUSH1 0x0 CODECOPY PUSH1 0x0 RETURN INVALID PUSH1 0x80 PUSH1 0x40 MSTORE PUSH1 0x4 CALLDATASIZE LT PUSH2 0xC6 JUMPI PUSH1 0x0 CALLDATALOAD PUSH1 0xE0 SHR DUP1 PUSH4 0x96852FCD GT PUSH2 0x7F JUMPI DUP1 PUSH4 0xCE673FCF GT PUSH2 0x59 JUMPI DUP1 PUSH4 0xCE673FCF EQ PUSH2 0x250 JUMPI DUP1 PUSH4 0xD1FF21C2 EQ PUSH2 0x27B JUMPI DUP1 PUSH4 0xDB8D55F1 EQ PUSH2 0x297 JUMPI DUP1 PUSH4 0xF3EDB0CE EQ PUSH2 0x2C2 JUMPI PUSH2 0xCD JUMP JUMPDEST DUP1 PUSH4 0x96852FCD EQ PUSH2 0x1D1 JUMPI DUP1 PUSH4 0xC45278A9 EQ PUSH2 0x1FA JUMPI DUP1 PUSH4 0xCD3E6993 EQ PUSH2 0x225 JUMPI PUSH2 0xCD JUMP JUMPDEST DUP1 PUSH4 0xB42330C EQ PUSH2 0xCF JUMPI DUP1 PUSH4 0xD72319A EQ PUSH2 0xFA JUMPI DUP1 PUSH4 0x12065FE0 EQ PUSH2 0x125 JUMPI DUP1 PUSH4 0x65AC4341 EQ PUSH2 0x150 JUMPI DUP1 PUSH4 0x6C829853 EQ PUSH2 0x17B JUMPI DUP1 PUSH4 0x8E15F473 EQ PUSH2 0x1A6 JUMPI PUSH2 0xCD JUMP JUMPDEST CALLDATASIZE PUSH2 0xCD JUMPI STOP JUMPDEST STOP JUMPDEST CALLVALUE DUP1 ISZERO PUSH2 0xDB JUMPI PUSH1 0x0 DUP1 REVERT JUMPDEST POP PUSH2 0xE4 PUSH2 0x2ED JUMP JUMPDEST PUSH1 0x40 MLOAD PUSH2 0xF1 SWAP2 SWAP1 PUSH2 0x8CA JUMP JUMPDEST PUSH1 0x40 MLOAD DUP1 SWAP2 SUB SWAP1 RETURN JUMPDEST CALLVALUE DUP1 ISZERO PUSH2 0x106 JUMPI PUSH1 0x0 DUP1 REVERT JUMPDEST POP PUSH2 0x10F PUSH2 0x304 JUMP JUMPDEST PUSH1 0x40 MLOAD PUSH2 0x11C SWAP2 SWAP1 PUSH2 0x960 JUMP JUMPDEST PUSH1 0x40 MLOAD DUP1 SWAP2 SUB SWAP1 RETURN JUMPDEST CALLVALUE DUP1 ISZERO PUSH2 0x131 JUMPI PUSH1 0x0 DUP1 REVERT JUMPDEST POP PUSH2 0x13A PUSH2 0x30E JUMP JUMPDEST PUSH1 0x40 MLOAD PUSH2 0x147 SWAP2 SWAP1 PUSH2 0x960 JUMP JUMPDEST PUSH1 0x40 MLOAD DUP1 SWAP2 SUB SWAP1 RETURN JUMPDEST CALLVALUE DUP1 ISZERO PUSH2 0x15C JUMPI PUSH1 0x0 DUP1 REVERT JUMPDEST POP PUSH2 0x165 PUSH2 0x32D JUMP JUMPDEST PUSH1 0x40 MLOAD PUSH2 0x172 SWAP2 SWAP1 PUSH2 0x960 JUMP JUMPDEST PUSH1 0x40 MLOAD DUP1 SWAP2 SUB SWAP1 RETURN JUMPDEST CALLVALUE DUP1 ISZERO PUSH2 0x187 JUMPI PUSH1 0x0 DUP1 REVERT JUMPDEST POP PUSH2 0x190 PUSH2 0x337 JUMP JUMPDEST PUSH1 0x40 MLOAD PUSH2 0x19D SWAP2 SWAP1 PUSH2 0x960 JUMP JUMPDEST PUSH1 0x40 MLOAD DUP1 SWAP2 SUB SWAP1 RETURN JUMPDEST CALLVALUE DUP1 ISZERO PUSH2 0x1B2 JUMPI PUSH1 0x0 DUP1 REVERT JUMPDEST POP PUSH2 0x1BB PUSH2 0x341 JUMP JUMPDEST PUSH1 0x40 MLOAD PUSH2 0x1C8 SWAP2 SWAP1 PUSH2 0x8E5 JUMP JUMPDEST PUSH1 0x40 MLOAD DUP1 SWAP2 SUB SWAP1 RETURN JUMPDEST CALLVALUE DUP1 ISZERO PUSH2 0x1DD JUMPI PUSH1 0x0 DUP1 REVERT JUMPDEST POP PUSH2 0x1F8 PUSH1 0x4 DUP1 CALLDATASIZE SUB DUP2 ADD SWAP1 PUSH2 0x1F3 SWAP2 SWAP1 PUSH2 0x735 JUMP JUMPDEST PUSH2 0x3FD JUMP JUMPDEST STOP JUMPDEST CALLVALUE DUP1 ISZERO PUSH2 0x206 JUMPI PUSH1 0x0 DUP1 REVERT JUMPDEST POP PUSH2 0x20F PUSH2 0x49C JUMP JUMPDEST PUSH1 0x40 MLOAD PUSH2 0x21C SWAP2 SWAP1 PUSH2 0x960 JUMP JUMPDEST PUSH1 0x40 MLOAD DUP1 SWAP2 SUB SWAP1 RETURN JUMPDEST CALLVALUE DUP1 ISZERO PUSH2 0x231 JUMPI PUSH1 0x0 DUP1 REVERT JUMPDEST POP PUSH2 0x23A PUSH2 0x4A6 JUMP JUMPDEST PUSH1 0x40 MLOAD PUSH2 0x247 SWAP2 SWAP1 PUSH2 0x8AF JUMP JUMPDEST PUSH1 0x40 MLOAD DUP1 SWAP2 SUB SWAP1 RETURN JUMPDEST CALLVALUE DUP1 ISZERO PUSH2 0x25C JUMPI PUSH1 0x0 DUP1 REVERT JUMPDEST POP PUSH2 0x265 PUSH2 0x4CC JUMP JUMPDEST PUSH1 0x40 MLOAD PUSH2 0x272 SWAP2 SWAP1 PUSH2 0x960 JUMP JUMPDEST PUSH1 0x40 MLOAD DUP1 SWAP2 SUB SWAP1 RETURN JUMPDEST PUSH2 0x295 PUSH1 0x4 DUP1 CALLDATASIZE SUB DUP2 ADD SWAP1 PUSH2 0x290 SWAP2 SWAP1 PUSH2 0x762 JUMP JUMPDEST PUSH2 0x4D4 JUMP JUMPDEST STOP JUMPDEST CALLVALUE DUP1 ISZERO PUSH2 0x2A3 JUMPI PUSH1 0x0 DUP1 REVERT JUMPDEST POP PUSH2 0x2AC PUSH2 0x592 JUMP JUMPDEST PUSH1 0x40 MLOAD PUSH2 0x2B9 SWAP2 SWAP1 PUSH2 0x960 JUMP JUMPDEST PUSH1 0x40 MLOAD DUP1 SWAP2 SUB SWAP1 RETURN JUMPDEST CALLVALUE DUP1 ISZERO PUSH2 0x2CE JUMPI PUSH1 0x0 DUP1 REVERT JUMPDEST POP PUSH2 0x2D7 PUSH2 0x59C JUMP JUMPDEST PUSH1 0x40 MLOAD PUSH2 0x2E4 SWAP2 SWAP1 PUSH2 0x960 JUMP JUMPDEST PUSH1 0x40 MLOAD DUP1 SWAP2 SUB SWAP1 RETURN JUMPDEST PUSH1 0x0 PUSH1 0x6 PUSH1 0x0 SWAP1 SLOAD SWAP1 PUSH2 0x100 EXP SWAP1 DIV PUSH1 0xFF AND SWAP1 POP SWAP1 JUMP JUMPDEST PUSH1 0x0 PUSH1 0x8 SLOAD SWAP1 POP SWAP1 JUMP JUMPDEST PUSH1 0x0 CALLER PUSH20 0xFFFFFFFFFFFFFFFFFFFFFFFFFFFFFFFFFFFFFFFF AND BALANCE SWAP1 POP SWAP1 JUMP JUMPDEST PUSH1 0x0 PUSH1 0x7 SLOAD SWAP1 POP SWAP1 JUMP JUMPDEST PUSH1 0x0 PUSH1 0x3 SLOAD SWAP1 POP SWAP1 JUMP JUMPDEST PUSH1 0x0 DUP1 PUSH1 0x0 DUP1 PUSH1 0x0 DUP1 PUSH1 0x0 DUP1 SLOAD SWAP1 PUSH2 0x100 EXP SWAP1 DIV PUSH20 0xFFFFFFFFFFFFFFFFFFFFFFFFFFFFFFFFFFFFFFFF AND PUSH20 0xFFFFFFFFFFFFFFFFFFFFFFFFFFFFFFFFFFFFFFFF AND PUSH4 0xFEAF968C PUSH1 0x40 MLOAD DUP2 PUSH4 0xFFFFFFFF AND PUSH1 0xE0 SHL DUP2 MSTORE PUSH1 0x4 ADD PUSH1 0xA0 PUSH1 0x40 MLOAD DUP1 DUP4 SUB DUP2 DUP7 DUP1 EXTCODESIZE ISZERO DUP1 ISZERO PUSH2 0x3B0 JUMPI PUSH1 0x0 DUP1 REVERT JUMPDEST POP GAS STATICCALL ISZERO DUP1 ISZERO PUSH2 0x3C4 JUMPI RETURNDATASIZE PUSH1 0x0 DUP1 RETURNDATACOPY RETURNDATASIZE PUSH1 0x0 REVERT JUMPDEST POP POP POP POP PUSH1 0x40 MLOAD RETURNDATASIZE PUSH1 0x1F NOT PUSH1 0x1F DUP3 ADD AND DUP3 ADD DUP1 PUSH1 0x40 MSTORE POP DUP2 ADD SWAP1 PUSH2 0x3E8 SWAP2 SWAP1 PUSH2 0x78F JUMP JUMPDEST SWAP5 POP SWAP5 POP SWAP5 POP SWAP5 POP SWAP5 POP DUP4 SWAP6 POP POP POP POP POP POP SWAP1 JUMP JUMPDEST PUSH1 0x1 ISZERO ISZERO PUSH1 0x6 PUSH1 0x0 SWAP1 SLOAD SWAP1 PUSH2 0x100 EXP SWAP1 DIV PUSH1 0xFF AND ISZERO ISZERO EQ PUSH2 0x453 JUMPI PUSH1 0x40 MLOAD PUSH32 0x8C379A000000000000000000000000000000000000000000000000000000000 DUP2 MSTORE PUSH1 0x4 ADD PUSH2 0x44A SWAP1 PUSH2 0x900 JUMP JUMPDEST PUSH1 0x40 MLOAD DUP1 SWAP2 SUB SWAP1 REVERT JUMPDEST PUSH2 0x45C DUP2 PUSH2 0x5A6 JUMP JUMPDEST PUSH1 0x1 PUSH1 0x4 SLOAD PUSH2 0x46B SWAP2 SWAP1 PUSH2 0x98C JUMP JUMPDEST PUSH1 0x4 DUP2 SWAP1 SSTORE POP PUSH1 0x3 SLOAD PUSH1 0x4 SLOAD EQ ISZERO PUSH2 0x499 JUMPI PUSH1 0x0 PUSH1 0x6 PUSH1 0x0 PUSH2 0x100 EXP DUP2 SLOAD DUP2 PUSH1 0xFF MUL NOT AND SWAP1 DUP4 ISZERO ISZERO MUL OR SWAP1 SSTORE POP JUMPDEST POP JUMP JUMPDEST PUSH1 0x0 PUSH1 0x5 SLOAD SWAP1 POP SWAP1 JUMP JUMPDEST PUSH1 0x1 PUSH1 0x0 SWAP1 SLOAD SWAP1 PUSH2 0x100 EXP SWAP1 DIV PUSH20 0xFFFFFFFFFFFFFFFFFFFFFFFFFFFFFFFFFFFFFFFF AND DUP2 JUMP JUMPDEST PUSH1 0x0 SELFBALANCE SWAP1 POP SWAP1 JUMP JUMPDEST PUSH8 0xDE0B6B3A7640000 DUP2 PUSH2 0x4E8 SWAP2 SWAP1 PUSH2 0xA13 JUMP JUMPDEST SWAP1 POP DUP1 CALLER PUSH20 0xFFFFFFFFFFFFFFFFFFFFFFFFFFFFFFFFFFFFFFFF AND BALANCE LT ISZERO PUSH2 0x544 JUMPI PUSH1 0x40 MLOAD PUSH32 0x8C379A000000000000000000000000000000000000000000000000000000000 DUP2 MSTORE PUSH1 0x4 ADD PUSH2 0x53B SWAP1 PUSH2 0x920 JUMP JUMPDEST PUSH1 0x40 MLOAD DUP1 SWAP2 SUB SWAP1 REVERT JUMPDEST DUP1 CALLVALUE EQ PUSH2 0x586 JUMPI PUSH1 0x40 MLOAD PUSH32 0x8C379A000000000000000000000000000000000000000000000000000000000 DUP2 MSTORE PUSH1 0x4 ADD PUSH2 0x57D SWAP1 PUSH2 0x940 JUMP JUMPDEST PUSH1 0x40 MLOAD DUP1 SWAP2 SUB SWAP1 REVERT JUMPDEST PUSH2 0x58F DUP2 PUSH2 0x608 JUMP JUMPDEST POP JUMP JUMPDEST PUSH1 0x0 PUSH1 0x9 SLOAD SWAP1 POP SWAP1 JUMP JUMPDEST PUSH1 0x0 PUSH1 0x4 SLOAD SWAP1 POP SWAP1 JUMP JUMPDEST DUP1 PUSH20 0xFFFFFFFFFFFFFFFFFFFFFFFFFFFFFFFFFFFFFFFF AND PUSH2 0x8FC PUSH1 0x8 SLOAD SWAP1 DUP2 ISZERO MUL SWAP1 PUSH1 0x40 MLOAD PUSH1 0x0 PUSH1 0x40 MLOAD DUP1 DUP4 SUB DUP2 DUP6 DUP9 DUP9 CALL SWAP4 POP POP POP POP ISZERO DUP1 ISZERO PUSH2 0x5EE JUMPI RETURNDATASIZE PUSH1 0x0 DUP1 RETURNDATACOPY RETURNDATASIZE PUSH1 0x0 REVERT JUMPDEST POP PUSH1 0x8 SLOAD PUSH1 0x7 SLOAD PUSH2 0x5FF SWAP2 SWAP1 PUSH2 0xA6D JUMP JUMPDEST PUSH1 0x7 DUP2 SWAP1 SSTORE POP POP JUMP JUMPDEST PUSH1 0x64 DUP2 PUSH1 0x5 PUSH2 0x617 SWAP2 SWAP1 PUSH2 0xA13 JUMP JUMPDEST PUSH2 0x621 SWAP2 SWAP1 PUSH2 0x9E2 JUMP JUMPDEST PUSH1 0x9 DUP2 SWAP1 SSTORE POP PUSH1 0x2 PUSH1 0x0 SWAP1 SLOAD SWAP1 PUSH2 0x100 EXP SWAP1 DIV PUSH20 0xFFFFFFFFFFFFFFFFFFFFFFFFFFFFFFFFFFFFFFFF AND PUSH20 0xFFFFFFFFFFFFFFFFFFFFFFFFFFFFFFFFFFFFFFFF AND PUSH2 0x8FC PUSH1 0x9 SLOAD SWAP1 DUP2 ISZERO MUL SWAP1 PUSH1 0x40 MLOAD PUSH1 0x0 PUSH1 0x40 MLOAD DUP1 DUP4 SUB DUP2 DUP6 DUP9 DUP9 CALL SWAP4 POP POP POP POP ISZERO DUP1 ISZERO PUSH2 0x691 JUMPI RETURNDATASIZE PUSH1 0x0 DUP1 RETURNDATACOPY RETURNDATASIZE PUSH1 0x0 REVERT JUMPDEST POP PUSH1 0x9 SLOAD DUP2 PUSH2 0x6A0 SWAP2 SWAP1 PUSH2 0xA6D JUMP JUMPDEST PUSH1 0x7 SLOAD PUSH2 0x6AD SWAP2 SWAP1 PUSH2 0x98C JUMP JUMPDEST PUSH1 0x7 DUP2 SWAP1 SSTORE POP PUSH1 0x3 SLOAD PUSH1 0x7 SLOAD PUSH2 0x6C3 SWAP2 SWAP1 PUSH2 0x9E2 JUMP JUMPDEST PUSH1 0x8 DUP2 SWAP1 SSTORE POP POP JUMP JUMPDEST PUSH1 0x0 DUP2 CALLDATALOAD SWAP1 POP PUSH2 0x6DB DUP2 PUSH2 0xBF9 JUMP JUMPDEST SWAP3 SWAP2 POP POP JUMP JUMPDEST PUSH1 0x0 DUP2 MLOAD SWAP1 POP PUSH2 0x6F0 DUP2 PUSH2 0xC10 JUMP JUMPDEST SWAP3 SWAP2 POP POP JUMP JUMPDEST PUSH1 0x0 DUP2 CALLDATALOAD SWAP1 POP PUSH2 0x705 DUP2 PUSH2 0xC27 JUMP JUMPDEST SWAP3 SWAP2 POP POP JUMP JUMPDEST PUSH1 0x0 DUP2 MLOAD SWAP1 POP PUSH2 0x71A DUP2 PUSH2 0xC27 JUMP JUMPDEST SWAP3 SWAP2 POP POP JUMP JUMPDEST PUSH1 0x0 DUP2 MLOAD SWAP1 POP PUSH2 0x72F DUP2 PUSH2 0xC3E JUMP JUMPDEST SWAP3 SWAP2 POP POP JUMP JUMPDEST PUSH1 0x0 PUSH1 0x20 DUP3 DUP5 SUB SLT ISZERO PUSH2 0x74B JUMPI PUSH2 0x74A PUSH2 0xB79 JUMP JUMPDEST JUMPDEST PUSH1 0x0 PUSH2 0x759 DUP5 DUP3 DUP6 ADD PUSH2 0x6CC JUMP JUMPDEST SWAP2 POP POP SWAP3 SWAP2 POP POP JUMP JUMPDEST PUSH1 0x0 PUSH1 0x20 DUP3 DUP5 SUB SLT ISZERO PUSH2 0x778 JUMPI PUSH2 0x777 PUSH2 0xB79 JUMP JUMPDEST JUMPDEST PUSH1 0x0 PUSH2 0x786 DUP5 DUP3 DUP6 ADD PUSH2 0x6F6 JUMP JUMPDEST SWAP2 POP POP SWAP3 SWAP2 POP POP JUMP JUMPDEST PUSH1 0x0 DUP1 PUSH1 0x0 DUP1 PUSH1 0x0 PUSH1 0xA0 DUP7 DUP9 SUB SLT ISZERO PUSH2 0x7AB JUMPI PUSH2 0x7AA PUSH2 0xB79 JUMP JUMPDEST JUMPDEST PUSH1 0x0 PUSH2 0x7B9 DUP9 DUP3 DUP10 ADD PUSH2 0x720 JUMP JUMPDEST SWAP6 POP POP PUSH1 0x20 PUSH2 0x7CA DUP9 DUP3 DUP10 ADD PUSH2 0x6E1 JUMP JUMPDEST SWAP5 POP POP PUSH1 0x40 PUSH2 0x7DB DUP9 DUP3 DUP10 ADD PUSH2 0x70B JUMP JUMPDEST SWAP4 POP POP PUSH1 0x60 PUSH2 0x7EC DUP9 DUP3 DUP10 ADD PUSH2 0x70B JUMP JUMPDEST SWAP3 POP POP PUSH1 0x80 PUSH2 0x7FD DUP9 DUP3 DUP10 ADD PUSH2 0x720 JUMP JUMPDEST SWAP2 POP POP SWAP3 SWAP6 POP SWAP3 SWAP6 SWAP1 SWAP4 POP JUMP JUMPDEST PUSH2 0x813 DUP2 PUSH2 0xAA1 JUMP JUMPDEST DUP3 MSTORE POP POP JUMP JUMPDEST PUSH2 0x822 DUP2 PUSH2 0xAC5 JUMP JUMPDEST DUP3 MSTORE POP POP JUMP JUMPDEST PUSH2 0x831 DUP2 PUSH2 0xAD1 JUMP JUMPDEST DUP3 MSTORE POP POP JUMP JUMPDEST PUSH1 0x0 PUSH2 0x844 PUSH1 0x15 DUP4 PUSH2 0x97B JUMP JUMPDEST SWAP2 POP PUSH2 0x84F DUP3 PUSH2 0xB7E JUMP JUMPDEST PUSH1 0x20 DUP3 ADD SWAP1 POP SWAP2 SWAP1 POP JUMP JUMPDEST PUSH1 0x0 PUSH2 0x867 PUSH1 0x19 DUP4 PUSH2 0x97B JUMP JUMPDEST SWAP2 POP PUSH2 0x872 DUP3 PUSH2 0xBA7 JUMP JUMPDEST PUSH1 0x20 DUP3 ADD SWAP1 POP SWAP2 SWAP1 POP JUMP JUMPDEST PUSH1 0x0 PUSH2 0x88A PUSH1 0x17 DUP4 PUSH2 0x97B JUMP JUMPDEST SWAP2 POP PUSH2 0x895 DUP3 PUSH2 0xBD0 JUMP JUMPDEST PUSH1 0x20 DUP3 ADD SWAP1 POP SWAP2 SWAP1 POP JUMP JUMPDEST PUSH2 0x8A9 DUP2 PUSH2 0xAFB JUMP JUMPDEST DUP3 MSTORE POP POP JUMP JUMPDEST PUSH1 0x0 PUSH1 0x20 DUP3 ADD SWAP1 POP PUSH2 0x8C4 PUSH1 0x0 DUP4 ADD DUP5 PUSH2 0x80A JUMP JUMPDEST SWAP3 SWAP2 POP POP JUMP JUMPDEST PUSH1 0x0 PUSH1 0x20 DUP3 ADD SWAP1 POP PUSH2 0x8DF PUSH1 0x0 DUP4 ADD DUP5 PUSH2 0x819 JUMP JUMPDEST SWAP3 SWAP2 POP POP JUMP JUMPDEST PUSH1 0x0 PUSH1 0x20 DUP3 ADD SWAP1 POP PUSH2 0x8FA PUSH1 0x0 DUP4 ADD DUP5 PUSH2 0x828 JUMP JUMPDEST SWAP3 SWAP2 POP POP JUMP JUMPDEST PUSH1 0x0 PUSH1 0x20 DUP3 ADD SWAP1 POP DUP2 DUP2 SUB PUSH1 0x0 DUP4 ADD MSTORE PUSH2 0x919 DUP2 PUSH2 0x837 JUMP JUMPDEST SWAP1 POP SWAP2 SWAP1 POP JUMP JUMPDEST PUSH1 0x0 PUSH1 0x20 DUP3 ADD SWAP1 POP DUP2 DUP2 SUB PUSH1 0x0 DUP4 ADD MSTORE PUSH2 0x939 DUP2 PUSH2 0x85A JUMP JUMPDEST SWAP1 POP SWAP2 SWAP1 POP JUMP JUMPDEST PUSH1 0x0 PUSH1 0x20 DUP3 ADD SWAP1 POP DUP2 DUP2 SUB PUSH1 0x0 DUP4 ADD MSTORE PUSH2 0x959 DUP2 PUSH2 0x87D JUMP JUMPDEST SWAP1 POP SWAP2 SWAP1 POP JUMP JUMPDEST PUSH1 0x0 PUSH1 0x20 DUP3 ADD SWAP1 POP PUSH2 0x975 PUSH1 0x0 DUP4 ADD DUP5 PUSH2 0x8A0 JUMP JUMPDEST SWAP3 SWAP2 POP POP JUMP JUMPDEST PUSH1 0x0 DUP3 DUP3 MSTORE PUSH1 0x20 DUP3 ADD SWAP1 POP SWAP3 SWAP2 POP POP JUMP JUMPDEST PUSH1 0x0 PUSH2 0x997 DUP3 PUSH2 0xAFB JUMP JUMPDEST SWAP2 POP PUSH2 0x9A2 DUP4 PUSH2 0xAFB JUMP JUMPDEST SWAP3 POP DUP3 PUSH32 0xFFFFFFFFFFFFFFFFFFFFFFFFFFFFFFFFFFFFFFFFFFFFFFFFFFFFFFFFFFFFFFFF SUB DUP3 GT ISZERO PUSH2 0x9D7 JUMPI PUSH2 0x9D6 PUSH2 0xB1B JUMP JUMPDEST JUMPDEST DUP3 DUP3 ADD SWAP1 POP SWAP3 SWAP2 POP POP JUMP JUMPDEST PUSH1 0x0 PUSH2 0x9ED DUP3 PUSH2 0xAFB JUMP JUMPDEST SWAP2 POP PUSH2 0x9F8 DUP4 PUSH2 0xAFB JUMP JUMPDEST SWAP3 POP DUP3 PUSH2 0xA08 JUMPI PUSH2 0xA07 PUSH2 0xB4A JUMP JUMPDEST JUMPDEST DUP3 DUP3 DIV SWAP1 POP SWAP3 SWAP2 POP POP JUMP JUMPDEST PUSH1 0x0 PUSH2 0xA1E DUP3 PUSH2 0xAFB JUMP JUMPDEST SWAP2 POP PUSH2 0xA29 DUP4 PUSH2 0xAFB JUMP JUMPDEST SWAP3 POP DUP2 PUSH32 0xFFFFFFFFFFFFFFFFFFFFFFFFFFFFFFFFFFFFFFFFFFFFFFFFFFFFFFFFFFFFFFFF DIV DUP4 GT DUP3 ISZERO ISZERO AND ISZERO PUSH2 0xA62 JUMPI PUSH2 0xA61 PUSH2 0xB1B JUMP JUMPDEST JUMPDEST DUP3 DUP3 MUL SWAP1 POP SWAP3 SWAP2 POP POP JUMP JUMPDEST PUSH1 0x0 PUSH2 0xA78 DUP3 PUSH2 0xAFB JUMP JUMPDEST SWAP2 POP PUSH2 0xA83 DUP4 PUSH2 0xAFB JUMP JUMPDEST SWAP3 POP DUP3 DUP3 LT ISZERO PUSH2 0xA96 JUMPI PUSH2 0xA95 PUSH2 0xB1B JUMP JUMPDEST JUMPDEST DUP3 DUP3 SUB SWAP1 POP SWAP3 SWAP2 POP POP JUMP JUMPDEST PUSH1 0x0 PUSH2 0xAAC DUP3 PUSH2 0xADB JUMP JUMPDEST SWAP1 POP SWAP2 SWAP1 POP JUMP JUMPDEST PUSH1 0x0 PUSH2 0xABE DUP3 PUSH2 0xADB JUMP JUMPDEST SWAP1 POP SWAP2 SWAP1 POP JUMP JUMPDEST PUSH1 0x0 DUP2 ISZERO ISZERO SWAP1 POP SWAP2 SWAP1 POP JUMP JUMPDEST PUSH1 0x0 DUP2 SWAP1 POP SWAP2 SWAP1 POP JUMP JUMPDEST PUSH1 0x0 PUSH20 0xFFFFFFFFFFFFFFFFFFFFFFFFFFFFFFFFFFFFFFFF DUP3 AND SWAP1 POP SWAP2 SWAP1 POP JUMP JUMPDEST PUSH1 0x0 DUP2 SWAP1 POP SWAP2 SWAP1 POP JUMP JUMPDEST PUSH1 0x0 PUSH10 0xFFFFFFFFFFFFFFFFFFFF DUP3 AND SWAP1 POP SWAP2 SWAP1 POP JUMP JUMPDEST PUSH32 0x4E487B7100000000000000000000000000000000000000000000000000000000 PUSH1 0x0 MSTORE PUSH1 0x11 PUSH1 0x4 MSTORE PUSH1 0x24 PUSH1 0x0 REVERT JUMPDEST PUSH32 0x4E487B7100000000000000000000000000000000000000000000000000000000 PUSH1 0x0 MSTORE PUSH1 0x12 PUSH1 0x4 MSTORE PUSH1 0x24 PUSH1 0x0 REVERT JUMPDEST PUSH1 0x0 DUP1 REVERT JUMPDEST PUSH32 0x5461736B3A205461736B20697320636C6F7365642E0000000000000000000000 PUSH1 0x0 DUP3 ADD MSTORE POP JUMP JUMPDEST PUSH32 0x5461736B3A20696E73756666696369656E742066756E64732E00000000000000 PUSH1 0x0 DUP3 ADD MSTORE POP JUMP JUMPDEST PUSH32 0x5461736B3A20556E6D61746368696E672066756E64732E000000000000000000 PUSH1 0x0 DUP3 ADD MSTORE POP JUMP JUMPDEST PUSH2 0xC02 DUP2 PUSH2 0xAB3 JUMP JUMPDEST DUP2 EQ PUSH2 0xC0D JUMPI PUSH1 0x0 DUP1 REVERT JUMPDEST POP JUMP JUMPDEST PUSH2 0xC19 DUP2 PUSH2 0xAD1 JUMP JUMPDEST DUP2 EQ PUSH2 0xC24 JUMPI PUSH1 0x0 DUP1 REVERT JUMPDEST POP JUMP JUMPDEST PUSH2 0xC30 DUP2 PUSH2 0xAFB JUMP JUMPDEST DUP2 EQ PUSH2 0xC3B JUMPI PUSH1 0x0 DUP1 REVERT JUMPDEST POP JUMP JUMPDEST PUSH2 0xC47 DUP2 PUSH2 0xB05 JUMP JUMPDEST DUP2 EQ PUSH2 0xC52 JUMPI PUSH1 0x0 DUP1 REVERT JUMPDEST POP JUMP INVALID LOG2 PUSH5 0x6970667358 0x22 SLT KECCAK256 EQ 0xD8 0xCE 0xE0 EXTCODESIZE 0x29 SIGNEXTEND 0xF6 DUP8 CREATE 0xD3 CREATE2 PUSH6 0xA2D458D6E566 INVALID PUSH30 0xA93A4B9A0EB816AA6370B364736F6C63430008070033A264697066735822 SLT KECCAK256 MSIZE 0xD9 0x26 DUP16 GASLIMIT 0x26 0x4E 0xE0 PUSH27 0x5FB10EE192D9F83DB898E6971945E320F38DC00E361E3864736F6C PUSH4 0x43000807 STOP CALLER "
		},
		"gasEstimates": {
			"creation": {
				"codeDepositCost": "1255600",
				"executionCost": "25575",
				"totalCost": "1281175"
			},
			"external": {
				"create(uint256,uint256)": "infinite",
				"getAddress(uint256)": "4989",
				"getNumDeployedTasks()": "2489",
				"tasks(uint256)": "4934"
			}
		},
		"methodIdentifiers": {
			"create(uint256,uint256)": "9f7b4579",
			"getAddress(uint256)": "b93f9b0a",
			"getNumDeployedTasks()": "ebfd505c",
			"tasks(uint256)": "8d977672"
		}
	},
	"abi": [
		{
			"inputs": [],
			"stateMutability": "nonpayable",
			"type": "constructor"
		},
		{
			"anonymous": false,
			"inputs": [
				{
					"indexed": false,
					"internalType": "uint256",
					"name": "id",
					"type": "uint256"
				},
				{
					"indexed": false,
					"internalType": "address",
					"name": "taskAdd",
					"type": "address"
				}
			],
			"name": "newTaskCreation",
			"type": "event"
		},
		{
			"inputs": [
				{
					"internalType": "uint256",
					"name": "numLabelers",
					"type": "uint256"
				},
				{
					"internalType": "uint256",
					"name": "amount",
					"type": "uint256"
				}
			],
			"name": "create",
			"outputs": [
				{
					"internalType": "address",
					"name": "",
					"type": "address"
				},
				{
					"internalType": "uint256",
					"name": "",
					"type": "uint256"
				}
			],
			"stateMutability": "payable",
			"type": "function"
		},
		{
			"inputs": [
				{
					"internalType": "uint256",
					"name": "_id",
					"type": "uint256"
				}
			],
			"name": "getAddress",
			"outputs": [
				{
					"internalType": "address",
					"name": "",
					"type": "address"
				}
			],
			"stateMutability": "view",
			"type": "function"
		},
		{
			"inputs": [],
			"name": "getNumDeployedTasks",
			"outputs": [
				{
					"internalType": "uint256",
					"name": "",
					"type": "uint256"
				}
			],
			"stateMutability": "view",
			"type": "function"
		},
		{
			"inputs": [
				{
					"internalType": "uint256",
					"name": "",
					"type": "uint256"
				}
			],
			"name": "tasks",
			"outputs": [
				{
					"internalType": "address",
					"name": "",
					"type": "address"
				}
			],
			"stateMutability": "view",
			"type": "function"
		}
	]
}